:100000000C94C1010C9459050C9432050C940B0509
:100010000C94E4040C94E9010C94E9010C94BD04E3
:100020000C94E9010C94E9010C9480050C944B06A6
:100030000C94E9010C94E9010C94E9010C94E90198
:100040000C94E9010C94E9010C94E9010C94E90188
:100050000C94E9010C94E9010C94E9010C94650DF0
:100060000C94E9010C94E9010C94E9010C94E90168
:100070000C94E9010C94E9010C94E9010C94E90158
:100080000C94E9010C94E9010C94E9010C94E90148
:100090000C94E9010C94E9010C94E9010C94E90138
:1000A0000C94E9010C94540A0C94E901C80CCB0C93
:1000B000BA0CBE0CC20CEC0CEC0CEC0CCF0CD30C40
:1000C000D70CDD0CE10CEC0CE70C7F8285888B8F64
:1000D0009295989B9EA1A4A7AAADB0B2B5B8BBBE9D
:1000E000C0C3C6C8CBCDD0D2D4D7D9DBDDDFE1E3E6
:1000F000E5E7E9EAECEEEFF0F2F3F4F5F7F8F9F9F9
:10010000FAFBFCFCFDFDFDFEFEFEFEFEFEFEFDFD1F
:10011000FDFCFCFBFAF9F9F8F7F5F4F3F2F0EFEE79
:10012000ECEAE9E7E5E3E1DFDDDBD9D7D4D2D0CDF6
:10013000CBC8C6C3C0BEBBB8B5B2B0ADAAA7A4A158
:100140009E9B9895928F8B8885827F7C7976736F42
:100150006C696663605D5A5754514E4C4946434042
:100160003E3B383633312E2C2A272523211F1D1BD9
:100170001917151412100F0E0C0B0A0907060505A6
:10018000040302020101010000000000000001015F
:10019000010202030405050607090A0B0C0E0F10E5
:1001A00012141517191B1D1F212325272A2C2E3148
:1001B0003336383B3E404346494C4E5154575A5DC6
:1001C000606366696C6F7376797C000000000000E4
:1001D00000002A2B280000000000000000000000A2
:1001E000000000000000000000002C9EB4A0A1A2AE
:1001F000A434A6A7A5AE362D3738271E1F202122EE
:1002000023242526B333B62EB7B89F8485868788E6
:10021000898A8B8C8D8E8F909192939495969798D6
:10022000999A9B9C9D2F3130A3AD35040506070894
:10023000090A0B0C0D0E0F101112131415161718B6
:10024000191A1B1C1DAFB1B0B500080B0002020249
:100250000000090400000102020000052400100152
:1002600005240101010424020605240600010705F6
:10027000810310004009040100020A000000070584
:100280000202400000070583024000000403090445
:1002900012010002EF0201404F1B06920001010211
:1002A0000301537061726B46756E00537061726B1F
:1002B00046756E2050726F204D6963726F0007069D
:1002C00005040100080A0B0C0D09000000002500C0
:1002D00028002B002E003100000000002400270021
:1002E0002A002D0030000000000023002600290015
:1002F0002C002F000404040404030405020202027B
:1003000004030202020206060606060604040202AE
:100310000204040408020110408040102040804084
:10032000800802040180402010020110801020404B
:1003300040200000000200090F0000030401000C2F
:1003400000000000000000000000000000000000AD
:1003500005010906A1018502050719E029E7150035
:10036000250175019508810295017508810395069F
:100370007508150025730507190029738100C00051
:10038000911011241FBECFEFDAE0DEBFCDBF11E028
:10039000A0E0B1E0ECE7F6E202C005900D92A639CC
:1003A000B107D9F722E0A6E9B1E001C01D92A93654
:1003B000B207E1F711E0C1ECD1E004C02197FE01E2
:1003C0000E94FD10C03CD107C9F70E94AF0D0C94EC
:1003D0003C130C94000008954091A4015091A50194
:1003E0002091A2013091A30142175307B4F49091D8
:1003F000E8009570E1F39091E80092FD19C08093B8
:10040000F1008091A4019091A50101968F73992725
:10041000892B19F48EEF8093E8008091A4019091CC
:10042000A50101969093A5018093A40181E0089510
:1004300080E00895DF92EF92FF920F931F93CF9386
:10044000DF93D82EF92EE42E062F10E0C801019676
:10045000880F0E94EC0183E00E94EC01CD2DDF2D7E
:100460000C0F1D1FC017D10789F0E7FE03C0FE0166
:10047000849101C088810E94EC01F82E80E00E94E6
:10048000EC018F2121968111EDCF01C081E0DF9138
:10049000CF911F910F91FF90EF90DF9008952FB7AC
:1004A000F89487708093E9009091E800892F80721A
:1004B00095FF04C09091F20080E4891B2FBF08953E
:1004C000615030F02091F100FC0120830196F8CFBB
:1004D000289884E68093CF010895CF92DF92EF921F
:1004E000FF920F931F93CF93DF936C017A018B01DF
:1004F000C0E0D0E0CE15DF0581F0D8016D918D010F
:10050000D601ED91FC910190F081E02DC601099595
:10051000892B11F02196EECF7E01C701DF91CF919B
:100520001F910F91FF90EF90DF90CF900895CF93A0
:10053000DF931F92CDB7DEB76983DC01ED91FC91AB
:100540000280F381E02D41E050E0BE016F5F7F4FFC
:1005500009950F90DF91CF91089583E08093E90092
:100560008091F200882319F08AE38093E8000895CF
:1005700083E00E944F0290E00895FC0184859585F8
:1005800097FD0BC09FB7F89482E08093E9008091BB
:10059000F2009FBF90E0019608959FB7F89482E023
:1005A0008093E9008091F2009FBF90E00895CF9280
:1005B000DF92EF92FF920F931F93CF93DF936C0123
:1005C000EB017B01E40EF51E00E010E0CE15DF0527
:1005D00081F069916D30D1F3D601ED91FC910190DC
:1005E000F081E02DC6010995892B19F00F5F1F4F8F
:1005F000EDCFC801DF91CF911F910F91FF90EF9048
:10060000DF90CF900895089580E090E008958F9254
:100610009F92AF92BF92CF92DF92EF92FF920F9391
:100620001F938090AF019090B001A090B101B09065
:10063000B201C0909E01D0909F01E090A001F09087
:10064000A101C80CD91CEA1CFB1CC616D706E8067B
:10065000F90658F46093B3017093B4018093B50127
:100660009093B601DC01CB0116C0C0909E01D090E2
:100670009F01E090A001F090A101D501C4018C0D73
:100680009D1DAE1DBF1D8093B3019093B401A09337
:10069000B501B093B601800F911FA21FB31F8093C5
:1006A000AF019093B001A093B101B093B201409318
:1006B000C3011F910F91FF90EF90DF90CF90BF90FB
:1006C000AF909F908F9008957F928F929F92AF925C
:1006D000BF92CF92DF92EF92FF920F931F93CF932F
:1006E000DF93C82E8B017A018091D001811103C064
:1006F0008FEF9FEF70C08091A80180FF05C08091AF
:10070000E00082608093E000CE2DDF2DD12C8AEFB7
:10071000B82E8C2D8770982E8C2D8072882E8C2D63
:100720008074782E9AE3A92E209719F4DD2009F41D
:100730004DC08C2D0E944F02811106C0BA94BB207F
:10074000B9F20E94B30BF0CF282F30E0C217D307C5
:100750000CF48C2F9FB7F8949092E9002091E80058
:1007600025FF32C0282F30E0C21BD30B882029F090
:100770008150A0F01092F100FBCFF801C7FE0AC033
:10078000815050F044914093F1003196F9CF41915E
:100790004093F1008150D8F7020F131FDD2019F0AC
:1007A000A092E8000AC08091E80085FD08C0A092F0
:1007B000E800DD24D394209739F0D12C05C0209790
:1007C00019F47110A092E8009FBFAECF5D9884E647
:1007D0008093A701C701DF91CF911F910F91FF90E7
:1007E000EF90DF90CF90BF90AF909F908F907F90D1
:1007F0000895CF93DF93EC0180910B01882331F0B2
:1008000083E00E9464031816190634F081E090E03A
:100810009B838A8380E090E0DF91CF9108950F93CE
:100820001F93CF93DF931F92CDB7DEB78C01FC01EE
:100830008485958597FF0EC0CE0101960E94F40B2A
:10084000019719F4898190E002C08FEF9FEFF801C2
:1008500095878487F801848595850F90DF91CF91E6
:100860001F910F910895CF93DF931F92CDB7DEB7FD
:10087000FC018485958597FD05C02FEF3FEF3587F7
:1008800024870BC0CE0101960E94F40B019719F446
:10089000898190E002C08FEF9FEF0F90DF91CF91A1
:1008A00008950F931F93CF93DF931F92CDB7DEB7B9
:1008B0008B0180913202811105C00E94360C81E0CB
:1008C0008093320282E0898341E050E0BE016F5F95
:1008D0007F4F809124020E94640397FD08C080919D
:1008E000240248E050E0B80180640E9464030F9045
:1008F000DF91CF911F910F91089580E00E949E0C8F
:10090000909319018093180108958091C60188235E
:10091000A1F08091C501882341F083E00E949E0CE4
:100920009093210180932001089583E00E949E0C02
:100930009093250180932401089583E00E949E0CEA
:1009400090931D0180931C0108958091C601882316
:1009500099F08091C501882341F082E00E949E0CAD
:100960009093250180932401089582E00E949E0CBB
:10097000909321018093200108951F920F920FB64A
:100980000F9211242F933F934F935F936F937F9315
:100990008F939F93AF93BF93EF93FF93E0911401D5
:1009A000F09115010995FF91EF91BF91AF919F9142
:1009B0008F917F916F915F914F913F912F910F9008
:1009C0000FBE0F901F9018951F920F920FB60F92A7
:1009D00011242F933F934F935F936F937F938F9344
:1009E0009F93AF93BF93EF93FF93E0911201F09128
:1009F00013010995FF91EF91BF91AF919F918F9155
:100A00007F916F915F914F913F912F910F900FBE0A
:100A10000F901F9018951F920F920FB60F921124EE
:100A20002F933F934F935F936F937F938F939F93F6
:100A3000AF93BF93EF93FF93E0911001F0911101F9
:100A40000995FF91EF91BF91AF919F918F917F9108
:100A50006F915F914F913F912F910F900FBE0F902B
:100A60001F9018951F920F920FB60F9211242F937B
:100A70003F934F935F936F937F938F939F93AF9326
:100A8000BF93EF93FF93E0910E01F0910F01099551
:100A9000FF91EF91BF91AF919F918F917F916F9156
:100AA0005F914F913F912F910F900FBE0F901F902C
:100AB00018951F920F920FB60F9211242F933F9308
:100AC0004F935F936F937F938F939F93AF93BF9356
:100AD000EF93FF93E0910C01F0910D010995FF91C7
:100AE000EF91BF91AF919F918F917F916F915F91A6
:100AF0004F913F912F910F900FBE0F901F9018951F
:100B00001F920F920FB60F9211248F939F93809193
:100B1000E1009091E100937F9093E10083FF0FC08B
:100B20001092E90091E09093EB001092EC0092E3B8
:100B30009093ED001092D00198E09093F00082FF26
:100B400020C093E09093E9009091F200992319F06E
:100B50009AE39093E8009091A701992339F090913E
:100B6000A70191509093A701992389F19091CF010A
:100B7000992339F09091CF0191509093CF0199230F
:100B800041F184FF10C08091E2008E7E81608093ED
:100B9000E2008091E1008F7E8093E1008091A801C6
:100BA0008E7E806111C080FF16C08091E2008E7E33
:100BB00080618093E2008091E1008E7E8093E1006D
:100BC0008091A8018E7E81608093A80104C05D9A07
:100BD000CDCF289AD6CF9F918F910F900FBE0F90B7
:100BE0001F901895DF92EF92FF920F931F93CF9370
:100BF000DF93D82E8A017B01E40EF51EEB01CE15A2
:100C0000DF0571F0D7FE03C0FE01849101C0888129
:100C10000E94EC0121968111F2CF8FEF9FEF01C06E
:100C2000C801DF91CF911F910F91FF90EF90DF905E
:100C300008950F931F93CF93DF931F92CDB7DEB725
:100C400082E0898342E450E06AE472E080E80E9436
:100C5000F2050E94220CDC0112960D911C91139753
:100C60000115110589F0D801ED91FC910280F38105
:100C7000E02DBE016F5F7F4FC801099597FD04C04D
:100C8000F80100851185ECCF89810F90DF91CF911C
:100C90001F910F9108951F920F920FB60F9211247A
:100CA000CF92DF92EF92FF920F931F932F933F9378
:100CB0004F935F936F937F938F939F93AF93BF9364
:100CC000EF93FF93CF93DF93CDB7DEB76C97DEBF83
:100CD000CDBF1092E9008091E80083FFFBC168E07E
:100CE000CE0145960E94600282EF8093E8008D89D4
:100CF00087FF05C09091E80090FFFCCF03C09EEFF6
:100D00009093E800982F907609F0C6C09E894F898D
:100D1000588D2F89F88C91110CC0803829F480915E
:100D2000A9018093F10002C01092F1001092F1002D
:100D300045C1913051F4811141C14130510509F053
:100D40003DC18091A9018D7F0BC0933061F4811169
:100D500035C14130510509F031C18091A90182604E
:100D60008093A9012BC1953049F48091E80080FF60
:100D7000FCCF822F80688093E30020C1963009F079
:100D80005EC00B8D1C8D22E01092E9001092A5012F
:100D90001092A401F21232C01092A3011092A2018B
:100DA0000E94190699E0BE016F5F7F4FDB01E92FBA
:100DB0001D92EA95E9F79983FA8291E09E8390EA81
:100DC00098879AEF99872091A4013091A501275F18
:100DD0003F4F3C832B838D831092E9001092A50135
:100DE0001092A4011093A3010093A20149E050E0E6
:100DF00080E00E94F2050E941906E0C01093A30152
:100E00000093A2010E94220CDC0112960D911C910C
:100E100013970115110509F4BBC0D801ED91FC91A0
:100E20000480F581E02DBE016B5E7F4FC8010995FE
:100E3000009709F0C7C0F80100851185EACF973007
:100E400009F445C1983021F481E08093F100B6C0E7
:100E5000993009F0B3C0837009F039C1E8E2F1E0DC
:100E600081E031E096E32081211109C08EE7809373
:100E7000EA001092EA008F898093D0019FC080938E
:100E8000E9003093EB0021912093EC009093ED006A
:100E90008F5F873041F7EACF8B8D9C8D1092E900F0
:100EA0001092A5011092A4019093A3018093A20136
:100EB000898D811153C08E899D89913A49F481327F
:100EC00009F005C147E050E064E071E080E0BBC09C
:100ED000913209F0FCC0833269F48F89988DA0E0CB
:100EE000B0E08093000190930101A0930201B093C0
:100EF000030164C0803269F48091E80082FFFCCF76
:100F000067E084E091E00E9460028BEF8093E8004C
:100F100055C0823209F052C08F8980930B01EEEFE9
:100F2000FFE7859194918B3F9C4D19F0E0E0F8E04C
:100F300002C0EEEFFAE08091040190910501A091CA
:100F40000601B0910701803B9440A105B10509F06D
:100F50009EC080910B0180FF79C099C00E94220C35
:100F6000FC01028113810115110509F4B0C0D801FB
:100F7000ED91FC910190F081E02DBE016B5E7F4F01
:100F8000C801099581111AC0F80100851185EBCFC0
:100F9000F1E0FF1609F44EC0F3E0FF1298C08F890C
:100FA000882309F44AC0823089F440E862E18BEA80
:100FB00092E00E941A02882309F489C08EEF809380
:100FC000E80088C018161906CCF381C0813029F4D6
:100FD00040E868E082EA92E0ECCF833009F077C025
:100FE0000E94220CDC011296ED90FC9013978E016A
:100FF0000F5F1F4F6801E114F10479F0D701ED9103
:10100000FC910680F781E02DB801C7010995080F12
:10101000111DF701E084F184EECFD8011C92F60196
:1010200001900020E9F73197BF016C197D0940E07C
:10103000C601BFCF60E972E002C06CE872E0FB015C
:10104000449150E080E80E94F205B8CFEE3F2AE0DC
:10105000F20751F0808191818737A7E79A0721F045
:101060009093FF0A8093FE0A87E797E79183808336
:10107000809160008093A6019BE088E10FB6F89410
:10108000A895809360000FBE9093600097CF8081F9
:1010900091818737974709F091CFA895809160009B
:1010A0008861809360008091A60180936000EE3F8C
:1010B000BAE0FB0739F08091FE0A9091FF0A918314
:1010C00080837CCF1092FF0A1092FE0A77CF81E2D4
:1010D0008093EB006C960FB6F894DEBF0FBECDBFC9
:1010E000DF91CF91FF91EF91BF91AF919F918F9140
:1010F0007F916F915F914F913F912F911F910F9130
:10110000FF90EF90DF90CF900F900FBE0F901F9049
:101110001895DC01683810F0685825C0E62FF0E01B
:1011200067FF12C0E058F10981E090E001C0880F2C
:10113000EA95EAF7809514969C9114978923149662
:101140008C93149760E00FC0E653FE4F64916623C2
:10115000F9F067FF08C014968C9114978D7F149650
:101160008C9314976F77FD0186E0662321F09681BA
:10117000691301C01682815031968111F6CFCD01DD
:10118000BD016C5F7F4F0E94510481E090E00895A3
:1011900080E090E00895DC01683810F068582DC0B8
:1011A000E62FF0E067FF11C0E058F10981E090E020
:1011B00001C0880FEA95EAF714969C911497892B41
:1011C00014968C93149760E018C0E653FE4F649118
:1011D000611109C081E090E013969C938E93129761
:1011E00080E090E0089567FF08C014968C911497F2
:1011F000826014968C9314976F7716968C9116973D
:10120000681751F117968C911797681729F118965E
:101210008C911897681701F119968C911997681796
:10122000D9F01A968C911A976817B1F01B968C9189
:101230001B97681789F0FD01369680E090E02191B8
:10124000211105C0FD01E80FF91F668305C0019655
:1012500086309105A1F7BECFCD01BD016C5F7F4FF8
:101260000E94510481E090E00895EF92FF921F9355
:10127000CF93DF93EC01162F0E94CB087C01612FE6
:10128000CE010E948908C7019927DF91CF911F9154
:10129000FF90EF9008954F925F926F927F92AF927E
:1012A000BF92CF92DF92EF92FF920F931F93FB01B9
:1012B00029013A01D80100919E0110919F012091CE
:1012C000A0013091A1014091AF015091B001609116
:1012D000B1017091B201040F151F261F371F4091F5
:1012E0009A0150919B0160919C0170919D014A0D62
:1012F0005B1D6C1D7D1DE130F105C1F01CF4EF2B71
:1013000091F025C0E230F10571F0339701F5041733
:10131000150726073707A0F09091C3019817B9F079
:1013200081E08C9314C09C91992389F004171507D0
:101330002607370760F4F7019081911108C01C92CD
:1013400093018201482FC601B5010E9407031F9136
:101350000F91FF90EF90DF90CF90BF90AF907F9074
:101360006F905F904F900895CF93C22F0E94CD0B46
:101370008230910579F00397C1F46C2F8AE392E0F3
:101380000E94CB088091C40181110FC081E080933D
:10139000AE010BC06C2F8AE392E00E948908809115
:1013A000C401811102C01092AE01CF9108958F92B5
:1013B0009F92AF92BF92CF92DF92EF92FF92BC01C9
:1013C000990F880B990B0E941A129B01AC0160E0E7
:1013D00070E086E994E40E9470116B017C0120E0CA
:1013E00030E04AEF52E40E94AB1220E030E040E8E7
:1013F0005EE30E94AB120E94E9114B015C01609315
:10140000BB017093BC018093BD019093BE0120E0AD
:1014100030E040E450E4C701B6010E94AB1220E086
:1014200030E04AEF52E40E94AB1220E030E040E8A6
:101430005EE30E94AB120E94E9116093BF017093BA
:10144000C0018093C1019093C20180929E0190924D
:101450009F01A092A001B092A10120E030E040E203
:1014600051E4C701B6010E94701120E030E04AEF5C
:1014700052E40E94AB1220E030E040E85EE30E94BC
:10148000AB120E94E91160939A0170939B018093C3
:101490009C0190939D01FF90EF90DF90CF90BF90C3
:1014A000AF909F908F9008951F920F920FB60F925A
:1014B00011242F934F935F936F937F938F939F93F9
:1014C000AF93BF93EF93FF93409196015091970193
:1014D00060919801709199018091AA019091AB015E
:1014E000A091AC01B091AD01840F951FA61FB71F4D
:1014F0008093960190939701A0939801B0939901DE
:101500008091960190919701A0919801B0919901D5
:101510002091AE01222359F08B2F9927AA27BB27B0
:10152000FC01E653FF4FE491E093D20002C0109219
:10153000D2008091B7019091B801A091B901B0910A
:10154000BA010196A11DB11D8093B7019093B80116
:10155000A093B901B093BA01FF91EF91BF91AF9100
:101560009F918F917F916F915F914F912F910F90EC
:101570000FBE0F901F901895DC01FB0112968C9105
:10158000129790E02481358182179307D1F49181DD
:101590008081813A31F481E0913091F0933089F487
:1015A00011C0813271F49B3021F482811F968C939B
:1015B00005C09A3031F4828150968C9381E0089571
:1015C000089580E00895DC01FB0188E4808389E4CC
:1015D000818384E482831D969C911D979F709F5BFD
:1015E00093831D968D919C911E9724E096958795E7
:1015F0002A95E1F78F708F5B848385E00895FC0165
:1016000082818F5BFB01808381E008953FB7F8946E
:1016100080914B0290914C02A0914D02B0914E02EC
:1016200026B5A89B05C02F3F19F00196A11DB11D3D
:101630003FBFBA2FA92F982F8827820F911DA11D78
:10164000B11DBC01CD0142E0660F771F881F991FB5
:101650004A95D1F70895EF92FF920F931F93CF937E
:10166000DF93FB012081213851F52381223239F5A6
:10167000DC0112962C9130E04481558142175307CA
:10168000F1F4EC010B851C85E12CF12C0115110501
:1016900091F0F801448155816281738180E80E9454
:1016A000F2058F3FFFEF9F0769F0E80EF91ED801A2
:1016B0000D911C91EBCF81E08F87C70105C080E0C1
:1016C00090E002C08FEF9FEFDF91CF911F910F91BC
:1016D000FF90EF900895CF93DF93CDB7DEB7699772
:1016E0000FB6F894DEBF0FBECDBFFC01DB018C91BD
:1016F0008F5F8C93BE016F5F7F4F89E1DB011D928D
:101700008A95E9F729E0298384E08A8391E09D8323
:1017100083E08E832A8721E22B879C879D879F8782
:1017200022E2288B27E02B8B25E02C8B8E8B20E46C
:1017300030E0388F2F8B998F82818B8395858685BA
:10174000998B8A8B838180688D8B49E150E080E0A2
:101750000E94F20569960FB6F894DEBF0FBECDBFAA
:10176000DF91CF910895CF92DF92EF92FF920E9486
:10177000060B6B017C010E94060BDC01CB018C196E
:101780009D09AE09BF09883E9340A105B10598F3B4
:10179000FF90EF90DF90CF900895DC012D913C9168
:1017A000FB01408151812417350731F481E090E03D
:1017B000232BC9F080E0089544E650E0DC01ED9170
:1017C000FC912E173F0751F441505109B9F7FB0125
:1017D00031832083232B29F082E004C08FEF9FEF19
:1017E000089583E090E008952091D001211103C075
:1017F0008FEF9FEF08955FB7F89422E02093E90000
:101800002091F20030E01216130614F421E030E0CB
:10181000422FFC0184E6415038F028988093CF0194
:101820009091F1009193F7CF2115310521F080912E
:10183000F200882319F05FBFC90108958BE68093F9
:10184000E800F9CF8091530281110DC082E08093AE
:101850004F0284E080935002109252021092510283
:1018600081E0809353028FE492E0089581E08093B9
:101870002502809326022BE232E030932802209347
:10188000270210922A021092290222E331E03093BB
:1018900022022093210210922D0210922C0210920B
:1018A0002F0210922E02809330028093310281EC3D
:1018B00080932B020E94220CFC0121818091250241
:1018C00090E0820F911D0897C4F5A281B381109713
:1018D00029F481E292E0938382830EC018968D9161
:1018E0009C911997009711F0DC01F8CF81E292E00A
:1018F00019969C938E9318978081809323028181FF
:1019000080932402908180912602890F808380E059
:1019100090912502891788F4A0912702B09128029E
:10192000A80FB11D9C91A181B0E0A95DBE4F9C9311
:1019300091819F5F91838F5FEBCF089590E0FC01D1
:10194000EE5CFC4F4491FC01ED5EFC4F2491FC01E8
:10195000EC50FD4F8491882309F44DC04423E1F1FC
:1019600050E0FA013197EF30F105B0F5EA5AFF4F38
:101970000C94FD10909180009F7707C0909180009B
:101980009F7D03C090918000977F9093800024C03A
:1019900094B59F7702C094B59F7D94BD1DC0909172
:1019A00090009F7707C0909190009F7D03C0909119
:1019B0009000977F909390000FC09091C0009F7708
:1019C00003C09091C0009F7D9093C00005C090918E
:1019D000C200977F9093C200E82FF0E0EE0FFF1F48
:1019E000EA51FD4FA591B491EC91E22381E090E0A2
:1019F00021F480E0089580E090E00895CF93DF9394
:101A000090E0FC01ED5EFC4F2491FC01EC50FD4F99
:101A10008491882361F190E0880F991FFC01E852BE
:101A2000FD4FC591D491FC01E653FD4FA591B491B2
:101A3000611109C09FB7F89488812095822388831B
:101A4000EC912E230BC0623061F49FB7F89488812B
:101A5000322F309583238883EC912E2B2C939FBFBC
:101A600006C08FB7F894E8812E2B28838FBFDF91B3
:101A7000CF910895823108F08251E82FF0E0E254CE
:101A8000FD4FE49180917B00E3FB222720F930E0B9
:101A900095E0220F331F9A95E1F78F7D282B209335
:101AA0007B00E770E064E0937C0080917A008064C2
:101AB00080937A0080917A0086FDFCCF8091780037
:101AC0002091790090E0922B08951F920F920FB60B
:101AD0000F9211242F933F938F939F93AF93BF93B4
:101AE0008091470290914802A0914902B0914A0228
:101AF0003091460223E0230F2D3720F40196A11DDB
:101B0000B11D05C026E8230F0296A11DB11D20932B
:101B100046028093470290934802A0934902B093F3
:101B20004A0280914B0290914C02A0914D02B091DB
:101B30004E020196A11DB11D80934B0290934C0261
:101B4000A0934D02B0934E02BF91AF919F918F91A0
:101B50003F912F910F900FBE0F901F901895789482
:101B600084B5826084BD84B5816084BD85B58260A2
:101B700085BD85B5816085BD80916E008160809353
:101B80006E001092810080918100826080938100BC
:101B900080918100816080938100809180008160CC
:101BA0008093800080919100826080939100809169
:101BB000910081608093910080919000816080937A
:101BC00090008091C10084608093C1008091C10029
:101BD00082608093C1008091C10081608093C100C8
:101BE0008091C30081608093C3008091C0008260B7
:101BF0008093C0008091C20081608093C200809178
:101C00007A00846080937A0080917A008260809369
:101C10007A0080917A00816080937A0080917A00C6
:101C2000806880937A001092D0011092A9011092DE
:101C3000A8018091D70081608093D70080EA8093CB
:101C4000D80089B5806189BD89B5826089BD09B434
:101C500000FEFDCF0E94B30B8091D8008F7C806185
:101C60008093D8008091E000807F8093E000809195
:101C7000E1008E7E8093E1008DE08093E200559A32
:101C8000209A8FEF9FEF9093DE018093DD0142E277
:101C900050E068E571E081ED91E00E94F90342E0D7
:101CA00050E06BE771E081ED91E00E94F90362E0A2
:101CB00082E00E94FE0C62E083E00E94FE0C62E083
:101CC00088E00E94FE0C62E089E00E94FE0C62E067
:101CD0008AE00E94FE0C62E080E00E94FE0C60E060
:101CE00083E10E94FE0C60E082E10E94FE0C61E054
:101CF00086E00E94FE0C8091C10081608093C1004B
:101D00008091C1008D7F8093C1008091C1008B7F45
:101D10008093C1008091C100877F8093C100809132
:101D2000C2008B7F8093C2008091C2008860809344
:101D3000C2008091C20081608093C2008091C30084
:101D400081608093C3008091C3008D7F8093C30026
:101D500080916E008E7F80936E008091720084600F
:101D60008093720088E894E8AEE1B6E08093AA011F
:101D70009093AB01A093AC01B093AD0184E190E0EE
:101D80000E94D70985EA94E090930F0180930E0199
:101D900080916900837F846080936900E99A85E877
:101DA00094E090930D0180930C01809169008C7FE9
:101DB000816080936900E89A8DE794E09093110127
:101DC00080931001809169008F7C8061809369000D
:101DD000EA9A30E0232E30E0332E88E00E949E0CF9
:101DE00021E0019709F020E02093C60189E00E94DC
:101DF0009E0C21E0019709F020E0209326018AE063
:101E00000E949E0C21E0019709F020E02093C5017B
:101E10008091AE01811180C082E10E943A0D209133
:101E2000C7013091C801A901415051098417950794
:101E300028F02F5F3F4F28173907F8F49093C80117
:101E40008093C701BC0180E090E00E94181221E35A
:101E500033EC4CE85DE30E94AB1220E030E040EA56
:101E600050E40E9404110E94E211CB01633371051A
:101E700014F082E390E00E94D70983E10E943A0DBA
:101E80002091C9013091CA01A9014150510984171B
:101E9000950728F02F5F3F4F28173907E8F59093F3
:101EA000CA018093C901BC0180E090E00E94181231
:101EB0002EEF33EF4FEA5FE30E94AB1220E030E0F9
:101EC00046E953E40E9404112B013C0120E030E07C
:101ED00046E954E40E94A612181634F4412C512C01
:101EE00026E9622E24E4722E20E030E040E85FE430
:101EF000C301B2010E94AB1223E331E245EF56E485
:101F00000E9470110E94E9116093AA017093AB01C5
:101F10008093AC019093AD0166E171E088E191E0BE
:101F20000E94CD0B8230910571F0039701F562E8B4
:101F30008AE392E00E94CB0869E68AE392E00E947D
:101F4000CB0869E60BC062E88AE392E00E94CB0806
:101F50006FE68AE392E00E94CB086FE68AE392E0A4
:101F60000E94890862E88AE392E00E9489088091D1
:101F7000C4018823A9F08091C6018823A9F02EE22C
:101F80004EE751E062E271E084E291E00E94B40920
:101F90002FE244E851E06EE171E080E291E00BC095
:101FA0008091C60181110AC02CE24AE851E06AE141
:101FB00071E08CE191E00E94B4099DC062E271E0A1
:101FC00084E291E00E94CD0BEC016EE171E080E2D1
:101FD00091E00E94CD0B4C014090B7015090B801A8
:101FE0006090B9017090BA018091C301813029F4E9
:101FF00080912601882329F026C08091260188231C
:1020000011F12091BB013091BC014091BD01509173
:10201000BE01630152019EECE92E91E0F92E0DEC18
:1020200011E0BE0181E00E944B092091BF01309177
:10203000C0014091C1015091C20178010EEC11E044
:10204000B40182E021C02091BF013091C0014091D4
:10205000C1015091C201630152018DECE82E81E073
:10206000F82E0EEC11E0B40182E00E944B092091A1
:10207000BB013091BC014091BD015091BE0178017E
:102080000DEC11E0BE0181E00E944B098091C3017B
:10209000813029F0823031F4CBECD1E005C0CCECBA
:1020A000D1E002C0C0E0D0E08091B3019091B401D2
:1020B000A091B501B091B601481659066A067B0693
:1020C00068F08091AF019091B001A091B101B09101
:1020D000B201481659066A067B06A0F0209759F00F
:1020E0008881882341F06CE28AE392E00E948908AB
:1020F0001092AE0118822114310409F46ECE0E94B0
:1021000000006BCE2097B9F388818111F4CF6CE287
:102110008AE392E00E94CB0881E08093AE0188833D
:10212000EACF1092D4011092D30188EE93E0A0E0A0
:10213000B0E08093D5019093D601A093D701B093DE
:10214000D8018EE391E09093D2018093D1018FEF7B
:102150009FEF9093DE018093DD0110923D0210927B
:102160003C0280E591E090933B0280933A0280919B
:102170006102811113C010925C0210925B0280E533
:1021800093E090935E0280935D028FE290E09093E3
:10219000600280935F0281E080936102809132024D
:1021A000811105C00E94360C81E080933202E091DB
:1021B0002C02F0912D02309739F48BE592E0909348
:1021C0002D0280932C020AC080819181009711F02A
:1021D000FC01FACF8BE592E09183808320912E025F
:1021E00030912F0280915F0290916002820F931FC5
:1021F00090932F0280932E020895EE0FFF1F0590FB
:10220000F491E02D09945058BB27AA270E941B1176
:102210000C946C120E945E1238F00E94651220F03D
:1022200039F49F3F19F426F40C945B120EF4E095F8
:10223000E7FB0C945512E92F0E947D1258F3BA1750
:10224000620773078407950720F079F4A6F50C94CC
:102250009F120EF4E0950B2EBA2FA02D0B01B901A1
:1022600090010C01CA01A0011124FF27591B99F00C
:10227000593F50F4503E68F11A16F040A22F232F18
:10228000342F4427585FF3CF469537952795A79568
:10229000F0405395C9F77EF41F16BA0B620B730B0F
:1022A000840BBAF09150A1F0FF0FBB1F661F771F80
:1022B000881FC2F70EC0BA0F621F731F841F48F435
:1022C000879577956795B795F7959E3F08F0B0CFBE
:1022D0009395880F08F09927EE0F979587950895A5
:1022E0000E9484110C946C120E94651258F00E9496
:1022F0005E1240F029F45F3F29F00C945512511101
:102300000C94A0120C945B120E947D1268F3992326
:10231000B1F3552391F3951B550BBB27AA276217E1
:102320007307840738F09F5F5F4F220F331F441FEE
:10233000AA1FA9F335D00E2E3AF0E0E832D0915022
:102340005040E695001CCAF72BD0FE2F29D0660F0F
:10235000771F881FBB1F261737074807AB07B0E852
:1023600009F0BB0B802DBF01FF2793585F4F3AF058
:102370009E3F510578F00C9455120C94A0125F3FCB
:10238000E4F3983ED4F3869577956795B795F795DE
:102390009F5FC9F7880F911D9695879597F90895C6
:1023A000E1E0660F771F881FBB1F62177307840762
:1023B000BA0720F0621B730B840BBA0BEE1F88F771
:1023C000E09508950E94E9116894B1110C94A0124F
:1023D00008950E94851288F09F5798F0B92F992789
:1023E000B751B0F0E1F0660F771F881F991F1AF000
:1023F000BA95C9F714C0B13091F00E949F12B1E0B4
:1024000008950C949F12672F782F8827B85F39F0B2
:10241000B93FCCF3869577956795B395D9F73EF498
:1024200090958095709561957F4F8F4F9F4F089540
:10243000E89409C097FB3EF490958095709561955E
:102440007F4F8F4F9F4F9923A9F0F92F96E9BB2714
:102450009395F695879577956795B795F111F8CF90
:10246000FAF4BB0F11F460FF1BC06F5F7F4F8F4FFB
:102470009F4F16C0882311F096E911C0772321F0F1
:102480009EE8872F762F05C0662371F096E8862F89
:1024900070E060E02AF09A95660F771F881FDAF7E0
:1024A000880F9695879597F9089597F99F6780E823
:1024B00070E060E008959FEF80EC089500240A9496
:1024C0001616170618060906089500240A9412160F
:1024D0001306140605060895092E0394000C11F442
:1024E000882352F0BB0F40F4BF2B11F460FF04C0EF
:1024F0006F5F7F4F8F4F9F4F089557FD9058440F48
:10250000551F59F05F3F71F04795880F97FB991F52
:1025100061F09F3F79F0879508951216130614060F
:10252000551FF2CF4695F1DF08C01616170618069C
:10253000991FF1CF86957105610508940895E89477
:10254000BB2766277727CB0197F908950E941813B8
:1025500008F48FEF08950E94BE120C946C120E9432
:102560005E1238F00E94651220F0952311F00C9451
:1025700055120C945B1211240C94A0120E947D122F
:1025800070F3959FC1F3950F50E0551F629FF001C6
:10259000729FBB27F00DB11D639FAA27F00DB11DDF
:1025A000AA1F649F6627B00DA11D661F829F222768
:1025B000B00DA11D621F739FB00DA11D621F839FEF
:1025C000A00D611D221F749F3327A00D611D231FC5
:1025D000849F600D211D822F762F6A2F11249F5713
:1025E00050409AF0F1F088234AF0EE0FFF1FBB1F16
:1025F000661F771F881F91505040A9F79E3F5105D5
:1026000080F00C9455120C94A0125F3FE4F3983EB6
:10261000D4F3869577956795B795F795E7959F5F7E
:10262000C1F7FE2B880F911D9695879597F9089510
:10263000990F0008550FAA0BE0E8FEEF16161706D3
:10264000E807F907C0F012161306E407F50798F03B
:10265000621B730B840B950B39F40A2661F0232B54
:10266000242B252B21F408950A2609F4A140A695D0
:0C2670008FEF811D811D0895F894FFCFAD
:10267C00FFFFFFFF00E1000000000000EB01EB0199
:10268C00EB01EB01EB010100010001000100010075
:10269C000100010001000100C18081000000000068
:1026AC000000BC0A6B0B2B0BE30A00000000970226
:1026BC00F903B802AD02BD0233040F0400000000A0
:1026CC003509D70204030303555342204D6F72732F
:1026DC0065204B6579206164617074657220696E48
:1026EC00697469616C697A696E67000D0A006469C6
:1026FC00743A20006461683A2000737472616967EF
:06270C0068743A20000091
:00000001FF
